:100000001DC02FC02EC02DC02CC02BC02AC029C09F
:1000100028C027C026C025C024C023C022C005A8F0
:100020004CCDB2D44EB93836A9020C50B99186885D
:10003000083CA6AAAA2ABE000000803F11241FBEC9
:10004000CFE5D2E0DEBFCDBF10E0A0E6B0E0ECE54A
:10005000F6E002C005900D92A636B107D9F702D09E
:10006000FBC2CECFF89480E886BD16BC80E187BB8A
:1000700086E087BD80E58CBD81E080BF87B984EED6
:1000800086B9C0E0D0E048EBC42EDD24D39400E074
:1000900010E064B175B177FF02C0695F7F4F33E054
:1000A000759567953A95E1F77B0182E0E81AF108CA
:1000B000C93E93E0D907FCF0C0E0D0E00130110563
:1000C00069F00230110589F001151105A1F488EBE2
:1000D000C82EDD24D39401E010E00DC020E7C22E2D
:1000E00023E0D22E02E010E006C090EEC92E96E08A
:1000F000D92E00E010E0B6010D2C000C880B990BF6
:1001000031D12CED3FE049EC50E4B8D14B015C011A
:10011000BE010D2E000C880B990B24D19B01AC0164
:10012000C501B401ABD120E030E04AE754E47FD010
:1001300010D24B015C01B701FF0C880B990B12D157
:10014000A50194019BD120E030E04EEF52E40BD0AA
:10015000D6D06BBD21968FE99FE00197F1F700C0E3
:10016000000097CF5058BB27AA270ED04DC13ED1D3
:1001700030F043D120F031F49F3F11F41EF433C12D
:100180000EF4E095E7FB29C1E92F4FD180F3BA17B0
:10019000620773078407950718F071F49EF567C12D
:1001A0000EF4E0950B2EBA2FA02D0B01B901900192
:1001B0000C01CA01A0011124FF27591B99F0593FD6
:1001C00050F4503E68F11A16F040A22F232F342F1E
:1001D0004427585FF3CF469537952795A795F0406C
:1001E0005395C9F77EF41F16BA0B620B730B840B81
:1001F000BAF09150A1F0FF0FBB1F661F771F881F39
:10020000C2F70EC0BA0F621F731F841F48F4879590
:1002100077956795B795F7959E3F08F0B3CF93957F
:10022000880F08F09927EE0F9795879508950CD0C1
:10023000EBC0E3D040F0DAD030F021F45F3F19F0AA
:10024000CCC0511115C1CFC0F0D098F39923C9F398
:100250005523B1F3951B550BBB27AA2762177307CC
:10026000840738F09F5F5F4F220F331F441FAA1F80
:10027000A9F333D00E2E3AF0E0E830D09150504040
:10028000E695001CCAF729D0FE2F27D0660F771FEE
:10029000881FBB1F261737074807AB07B0E809F0D0
:1002A000BB0B802DBF01FF2793585F4F2AF09E3F65
:1002B000510568F092C0DCC05F3FECF3983EDCF380
:1002C000869577956795B795F7959F5FC9F7880FDE
:1002D000911D9695879597F90895E1E0660F771F30
:1002E000881FBB1F621773078407BA0720F0621BC1
:1002F000730B840BBA0BEE1F88F7E095089504D0BA
:100300006894B111B5C0089598D088F09F5790F0C7
:10031000B92F9927B751A0F0D1F0660F771F881F2A
:10032000991F1AF0BA95C9F712C0B13081F09FD069
:10033000B1E008959CC0672F782F8827B85F39F007
:10034000B93FCCF3869577956795B395D9F73EF489
:1003500090958095709561957F4F8F4F9F4F089531
:10036000E89409C097FB3EF490958095709561954F
:100370007F4F8F4F9F4F9923A9F0F92F96E9BB2705
:100380009395F695879577956795B795F111F8CF81
:10039000FAF4BB0F11F460FF1BC06F5F7F4F8F4FEC
:1003A0009F4F16C0882311F096E911C0772321F0E2
:1003B0009EE8872F762F05C0662371F096E8862F7A
:1003C00070E060E02AF09A95660F771F881FDAF7D1
:1003D000880F9695879597F9089597F99F6780E814
:1003E00070E060E008959FEF80EC089500240A9487
:1003F0001616170618060906089500240A94121600
:100400001306140605060895092E0394000C11F432
:10041000882352F0BB0F40F4BF2B11F460FF04C0DF
:100420006F5F7F4F8F4F9F4F089557FD9058440F38
:10043000551F59F05F3F71F04795880F97FB991F43
:1004400061F09F3F79F08795089512161306140600
:10045000551FF2CF4695F1DF08C01616170618068D
:10046000991FF1CF86957105610508940895E89468
:10047000BB2766277727CB0197F908950AD0C4CF09
:10048000B5DF28F0BADF18F0952309F0A6CFABCF7F
:10049000EFCFCBDFA8F39923D9F35523C9F3950FF9
:1004A00050E0551FAA27EE27FF27BB2700240894FA
:1004B000679520F4E20FF31FB41F0A1E220F331FAB
:1004C000441FAA1F6695A9F7779530F4F30FB41F60
:1004D0000A1E121E08F46395330F441FAA1F221F21
:1004E000769599F7879520F4B40F0A1E121E631FA4
:1004F000440FAA1F221F331F8695A9F7862F712D3F
:10050000602D11249F5750408AF0E1F088234AF073
:10051000EE0FFF1FBB1F661F771F881F91505040B3
:10052000A9F79E3F510570F058CFA2CF5F3FECF383
:10053000983EDCF3869577956795B795F795E7959F
:100540009F5FC1F7FE2B880F911D9695879597F9B0
:1005500008959F9305D00F9007FCEE5F28C043CF0E
:100560006CDFE8F3E894E0E0BB279F57F0F02AED5A
:100570003FE049EC06C0EE0FBB0F661F771F881FD8
:1005800028F0B23A62077307840728F0B25A620B68
:10059000730B840BE3959A9572F7803830F49A9533
:1005A000BB0F661F771F881FD2F7904813C0EF93C9
:1005B000E0FF06C0A2EA2AED3FE049EC5FEBE4DD94
:1005C00023DF0F90039401FC9058EEE1F0E00EC0A1
:1005D0009F3F31F0915020F4879577956795B795B7
:1005E000880F911D9695879597F908959F938F93FE
:1005F0007F936F93FF93EF939B01AC013FDFEF91EC
:10060000FF9105D02F913F914F915F9137CFDF93AD
:10061000CF931F930F93FF92EF92DF927B018C0198
:10062000689405C0DA2EEF0134DFFE01E894A5914D
:100630002591359145915591AEF3EF01A5DDFE0170
:100640009701A801DA9479F7DF90EF90FF900F916E
:0C0650001F91CF91DF910895F894FFCF27
:06065C00E803DC0F494039
:00000001FF
