:100000000EC015C014C013C012C011C010C00FC064
:100010000EC00DC00CC00BC00AC009C008C011241E
:100020001FBECFE5D2E0DEBFCDBF02D036C0E8CFE5
:10003000F89480E886BD16BC80E187BB86E087BD6A
:1000400080E58CBD81E080BF87B984EE86B984B13C
:1000500095B1855293406AE070E00ED081589F4F71
:100060008F3F910519F014F08FEF90E097FF02C0D9
:1000700080E090E08BBDEBCF0024552704C0080E34
:10008000591F880F991F009729F076956795B8F347
:0E0090007105B9F7802D952F0895F894FFCFD4
:00000001FF
